:020000040000FA
:10000000680100204D010000510100005301000073
:1000100000000000000000000000000000000000E0
:10002000000000000000000000000000550100007A
:10003000000000000000000057010000ED03000078
:100040005B0100005B0100005B010000000000009C
:100050005B01000000000000000000000000000044
:10006000000000005B010000000000000000000034
:10007000000000005B010000000000005B010000C8
:100080005B010000000000005B01000000000000B8
:100090005B01000000000000000000000000000004
:1000A0005B0100005B010000000000000000000098
:1000B0000000000000000000000000005B010000E4
:1000C00000F002F800F032F80CA030C8083824180C
:1000D0002D18671EA246AB4654465D46AC4201D180
:1000E00000F024F87E460F3EB6460FCC0126334280
:1000F00000D0FB1A3343A246AB461847B4030000B6
:10010000C403000000000000002300240025002696
:10011000103A01D378C1FBD8520700D330C100D5C3
:100120000B6070471FB51FBD10B510BD00F027F85C
:100130001146FFF7F7FF00F08BF900F03FF803B42A
:10014000FFF7F2FF03BC00F045F800000648004747
:10015000FEE7FEE7FEE7FEE7FEE7FEE703480449A9
:10016000024A044B70470000C100000068000020F4
:10017000680100206800002070477047704775468E
:1001800000F024F8AE46050069465346C008C0009A
:10019000854618B020B5FFF7E1FF60BCB6460026E3
:1001A0000027C0C5C0C5C0C5C0C5C0C5C0C5C0C585
:1001B000C0C5403D490849008D46704710B504460A
:1001C000C046C0462046FFF7BAFF10BD0048704742
:1001D0000000002001491820ABBEFEE72600020007
:1001E0007047811E091F00BFFCD27047F0B52A4A34
:1001F00082182A4BC318087920280DD000281DD159
:100200000C68641E5460D56E254C25408835D56633
:100210001646703688251DE00C68641E5460D46E46
:100220001F4D2C401F4EA419D466146F2C40A419E6
:100230001467012465071C4C16460BE00C68640823
:100240005460D66E164C26400525ED017619D6660B
:1002500016467036376827402F433760D46A134DEF
:100260002C40D462146B2C4014630024D4641465B5
:100270008F24E443D56F2540D5671D6825401D6058
:1002800049790143BD2008401168094B0B40C01853
:10029000801C1060F0BDC0460418000084180000E7
:1002A00024F93FF001040000FFFFFFCF8888FDFF25
:1002B0004000FFCF10B507239B041940920080181F
:1002C000024A84589C436118815010BD30180000C8
:1002D00010B5029CA400001911431943014A815032
:1002E00010BDC0465018000092008018014A81508D
:1002F0007047C0461018000010B501221203831881
:100300000C789C604B7883508978014A815010BDED
:100310000C1100001A48812101600120800302496C
:10032000086008637047C046A0120A4070B582B0EA
:100330001348852101600126B00312490860584C1A
:1003400011492046FFF7D8FF10492046FFF74EFF1E
:100350007D20C100002520462A46FFF7C5FF0095F5
:10036000204629462A462B46FFF7B2FF204629465B
:100370002A46FFF79FFF06488660066002B070BD00
:100380003C804240D0120A40A4040000A8040000AF
:100390000071084080B50E480E4941600E4A516018
:1003A0000E4B59600E490160116019601020FFF773
:1003B00018FF0C48002101600B480168032291439B
:1003C00001600121090342680A43426080BDC046C2
:1003D00000080A40030000B10048084000680840D7
:1003E0000100002608030B4000010B40174801687C
:1003F000002902D00168491E016070470848094978
:100400004160FF210906084A13688B4303218907CD
:100410005918116000218160072101607047C046B2
:1004200010E000E0FF7C000020ED00E007490860DC
:100430000868002808D00868002805D00868002847
:1004400002D008680028F3D17047C0466000002041
:10045000FFF7A0FFFFF75EFFFFF7D0FFFFF766FF94
:1004600000260E4F0E4C0025204631462A46FFF747
:100470003BFF0120FFF7DAFF761CBE42F3D17E1C62
:10048000761E204631462A46FFF72EFF0120FFF751
:10049000CDFF012EF4D82E46E5E7C046E703000065
:1004A0000060084008072700E80300000001000082
:1004B000C0040000000000206801000008010000E6
:04000005000000C136
:00000001FF
