:020000040000FA
:1000000068010020490100004D0100004F0100007F
:1000100000000000000000000000000000000000E0
:10002000000000000000000000000000510100007E
:100030000000000000000000530100008D020000DD
:1000400057010000570100005701000000000000A8
:100050005701000000000000000000000000000048
:100060000000000057010000000000000000000038
:1000700000000000570100000000000057010000D0
:1000800057010000000000005701000000000000C0
:100090005701000000000000000000000000000008
:1000A00057010000570100000000000000000000A0
:1000B00000000000000000000000000057010000E8
:1000C00000F002F800F030F80CA030C8083824180E
:1000D0002D18671EA246AB4654465D46AC4201D180
:1000E00000F022F87E460F3EB6460FCC0126334282
:1000F00000D0FB1A3343A246AB461847F401000078
:10010000040200000023002400250026103A01D339
:1001100078C1FBD8520700D330C100D50B607047BF
:100120001FB51FBD10B510BD00F027F81146FFF731
:10013000F7FF00F0B3F800F03FF803B4FFF7F2FF69
:1001400003BC00F045F8000006480047FEE7FEE764
:10015000FEE7FEE7FEE7FEE703480449024A044BD8
:1001600070470000C1000000680000206801002006
:1001700068000020704770477047754600F024F80B
:10018000AE46050069465346C008C000854618B013
:1001900020B5FFF7E1FF60BCB64600260027C0C5CA
:1001A000C0C5C0C5C0C5C0C5C0C5C0C5C0C5403D2F
:1001B000490849008D46704710B50446C046C04600
:1001C0002046FFF7BAFF10BD00487047000000202E
:1001D00001491820ABBEFEE7260002007047811ED1
:1001E000091F00BFFCD27047044881210160012033
:1001F00080030349086008637047C0463C80424062
:10020000A0120A4006480021016006480168032246
:100210009143016041680F22914341607047C0469D
:1002200008030B4000010B40084809494160FF21C9
:100230000906084A13688B4303218907591811607E
:1002400000218160072101607047C04610E000E096
:10025000FF7C000020ED00E080B500F007F8FFF71C
:10026000C3FFFFF7CFFFFFF7DFFF80BD80B5044876
:1002700004494160044901601020FFF7B0FF80BDD0
:1002800000080A40030000B1010000261748016879
:10029000002902D00168491E01607047FFF7DCFFAA
:1002A0007D20C000012189030F4A104B11601860A6
:1002B0001C68002C08D01C68002C05D01C68002C81
:1002C00002D01C68002CF3D1116118601C68002C4E
:1002D000ECD01C68002CE9D01C68002CE6D01C680F
:1002E000002CF3D1E2E7C04690120A4060000020E3
:1002F000000300000000002068010000040100006D
:04000005000000C136
:00000001FF
