:020000040000FA
:10000000680100204D010000510100005301000073
:1000100000000000000000000000000000000000E0
:10002000000000000000000000000000550100007A
:10003000000000000000000057010000590300000C
:100040005B0100005B0100005B010000000000009C
:100050005B01000000000000000000000000000044
:10006000000000005B010000000000000000000034
:10007000000000005B010000000000005B010000C8
:10008000D5030000000000005B010000000000003C
:100090005B01000000000000000000000000000004
:1000A0005B0100005B010000000000000000000098
:1000B0000000000000000000000000005B010000E4
:1000C00000F002F800F032F80CA030C8083824180C
:1000D0002D18671EA246AB4654465D46AC4201D180
:1000E00000F024F87E460F3EB6460FCC0126334280
:1000F00000D0FB1A3343A246AB4618473403000036
:100100004403000000000000002300240025002616
:10011000103A01D378C1FBD8520700D330C100D5C3
:100120000B6070471FB51FBD10B510BD00F027F85C
:100130001146FFF7F7FF00F05BF900F03FF803B45A
:10014000FFF7F2FF03BC00F045F800000648004747
:10015000FEE7FEE7FEE7FEE7FEE7FEE703480449A9
:10016000024A044B70470000C100000068000020F4
:10017000680100206800002070477047704775468E
:1001800000F024F8AE46050069465346C008C0009A
:10019000854618B020B5FFF7E1FF60BCB6460026E3
:1001A0000027C0C5C0C5C0C5C0C5C0C5C0C5C0C585
:1001B000C0C5403D490849008D46704710B504460A
:1001C000C046C0462046FFF7BAFF10BD0048704742
:1001D0000000002001491820ABBEFEE72600020007
:1001E0007047811E091F00BFFCD27047B0B5364A68
:1001F00080184A6842600A78222A57D8930001A4DE
:10020000E3589F46A3020000AD020000A3020000D5
:10021000AD020000AD020000AD020000AD02000022
:10022000AD020000AD020000AD020000AD02000012
:10023000AD020000AD020000AD020000AD02000002
:10024000AD02000091020000AD020000910200002A
:10025000AD020000AD020000AD020000AD020000E2
:10026000AD020000AD020000AD020000AD020000D2
:10027000AD020000AD020000AD020000AD020000C2
:10028000AD02000091020000AD02000091020000EA
:1002900003231B0704689C4301235B07E3180360E7
:1002A00004E003231B0704689C4304600B8AC360BB
:1002B000CB68064C1C40C36A054D1D402B19C36218
:1002C000097A11430160B0BD04180000777702007D
:1002D0008888FDFF10B50122120383180C789C60FA
:1002E0004B7883508978014A815010BD0C11000071
:1002F00004488121016001208003034908600863EC
:100300007047C0463C804240A0120A4080B50C486D
:100310000C4941600C4A51600C4901601160102089
:10032000FFF75FFF0A48002101600A4801680322C5
:10033000914301600121090342680A43426080BD84
:1003400000080A40030000B10048084001000026F0
:1003500008030B4000010B4003480168002902D04C
:100360000168491E01607047600000200848094983
:100370004160FF210906084A13688B43032189075E
:100380005918116000218160072101607047C04643
:1003900010E000E0FF7C000020ED00E010B5084C0C
:1003A00008492046FFF796FF07492046FFF71EFF42
:1003B000064801680122114301600548026010BD32
:1003C00000400840180400001C04000028500840A9
:1003D0000851084004480068C0B2012803D1012038
:1003E000800302490860704720500840B0120A405C
:1003F000FFF78CFFFFF77CFFFFF7B8FFFFF7CEFF9B
:10040000012000040249086002490860FEE7C04676
:1004100080E200E000E100E0080763000200000065
:100420003F9C0000010000000000000000000000F0
:1004300040040000000000206801000008010000E6
:04000005000000C136
:00000001FF
