:020000040000FA
:10000000080100204D0100005101000053010000D3
:1000100000000000000000000000000000000000E0
:10002000000000000000000000000000550100007A
:100030000000000000000000570100001103000054
:100040005B0100005B0100005B010000000000009C
:100050005B01000000000000000000000000000044
:10006000000000005B010000000000000000000034
:10007000000000005B010000000000002103000000
:100080005B010000000000005B01000000000000B8
:100090005B01000000000000000000000000000004
:1000A0005B0100005B010000000000000000000098
:1000B0000000000000000000000000005B010000E4
:1000C00000F002F800F032F80CA030C8083824180C
:1000D0002D18671EA246AB4654465D46AC4201D180
:1000E00000F024F87E460F3EB6460FCC0126334280
:1000F00000D0FB1A3343A246AB461847DC0200008F
:10010000EC0200000000000000230024002500266F
:10011000103A01D378C1FBD8520700D330C100D5C3
:100120000B6070471FB51FBD10B510BD0348854655
:10013000FFF7F8FF00F014F900F012F808010020B2
:1001400003B4FFF7F1FF03BC00F008F903480047D0
:10015000FEE7FEE7FEE7FEE7FEE7FEE7C100000080
:1001600010B50446C046C0462046FFF7E9FF10BD63
:10017000811E091F00BFFCD270470000B0B51122DC
:10018000120283580124A34383508B780C881C43AC
:100190008B882343094C1C408358094D1D402B1963
:1001A00083508B79CC791C43097A21437E231940F3
:1001B000801842689A4351184160B0BD186700002A
:1001C000E798FDFF10B50122120383180C789C609C
:1001D0004978815010BD0000054881210160054922
:1001E0000161012080030449086008637047C0462C
:1001F0003C80424081000400A0120A4006480021D1
:10020000016006480168032291430160012109034E
:1002100042680A434260704708030B4000010B40EC
:10022000084809494160FF210906084A13688B43C1
:10023000032189075918116000218160072101609D
:100240007047C04610E000E0FF7C000020ED00E0B9
:1002500010B517488221416016490160164C1749B4
:100260002046FFF7AFFF16492046FFF787FF03211F
:10027000CA0314480368934303600269124B134096
:100280001A33036142690A433C218A43426141684F
:1002900001221140436893435918416091020B4B6E
:1002A0001C680C431C6001681143016010BDC0460E
:1002B0005C8042408200040000801040C8030000BF
:1002C000CA030000009110400000FFFF289010407A
:1002D00080B500F007F8FFF77FFFFFF78FFFFFF70C
:1002E0009FFF80BD80B5064806494160064A5160BF
:1002F0000649016011601020FFF73AFF80BDC0463B
:1003000000080A40030000B10088104001000026E8
:100310002C480168002902D00168491E016070471D
:100320000B480068C0B20B2811D10A48C1690A4ABB
:10033000117011780268D20708D00268D20705D080
:100340000268D20702D00268D207F3D181617047F8
:1003500020901040089110400400002070470000D9
:10036000FFF7B6FFFFF774FF0121C803124A1060C0
:10037000124A10607D2080008903114A114B1160E0
:1003800018601C68002C08D01C68002C05D01C6864
:10039000002C02D01C68002CF3D1116118601C687D
:1003A000002CECD01C68002CE9D01C68002CE6D096
:1003B0001C68002CF3D1E2E780E200E000E100E0FD
:1003C00090120A4000000020040000001800000005
:1003D0000030000000000000E803000000000020E2
:0803E000080100000801000003
:04000005000000C136
:00000001FF
