:020000040000FA
:10000000680100204D010000510100005301000073
:1000100000000000000000000000000000000000E0
:10002000000000000000000000000000550100007A
:1000300000000000000000005701000069020000FD
:100040005B0100005B0100005B010000000000009C
:100050005B01000000000000000000000000000044
:10006000000000005B010000000000000000000034
:10007000000000005B010000000000005B010000C8
:100080005B010000000000005B01000000000000B8
:100090005B01000000000000000000000000000004
:1000A0005B0100005B010000000000000000000098
:1000B0000000000000000000000000005B010000E4
:1000C00000F002F800F032F80CA030C8083824180C
:1000D0002D18671EA246AB4654465D46AC4201D180
:1000E00000F024F87E460F3EB6460FCC0126334280
:1000F00000D0FB1A3343A246AB461847D401000098
:10010000E401000000000000002300240025002678
:10011000103A01D378C1FBD8520700D330C100D5C3
:100120000B6070471FB51FBD10B510BD00F027F85C
:100130001146FFF7F7FF00F0A1F800F03FF803B415
:10014000FFF7F2FF03BC00F045F800000648004747
:10015000FEE7FEE7FEE7FEE7FEE7FEE703480449A9
:10016000024A044B70470000C100000068000020F4
:10017000680100206800002070477047704775468E
:1001800000F024F8AE46050069465346C008C0009A
:10019000854618B020B5FFF7E1FF60BCB6460026E3
:1001A0000027C0C5C0C5C0C5C0C5C0C5C0C5C0C585
:1001B000C0C5403D490849008D46704710B504460A
:1001C000C046C0462046FFF7BAFF10BD0048704742
:1001D0000000002001491820ABBEFEE72600020007
:1001E0007047811E091F00BFFCD2704704480549B3
:1001F00001600548016810220A4302607047C0464A
:100200004C80424081000500A0130A40044881212F
:100210000160012080030349086008637047C046FD
:100220003C804240A0120A4080B50A480A49416019
:100230000A4901601020FFF7D4FF0948002101603E
:100240000848016803229143016041680F229143ED
:10025000416080BD00080A40030000B10100002693
:1002600008030B4000010B4003480168002902D03D
:100270000168491E0160704760000020FFF7D4FF4D
:10028000FFF7C4FFFFF7B2FF0121880389040D4A7D
:100290000D4B00E010601C680C4201D1106100E0C1
:1002A00010601C680C4201D1106100E010601C68F5
:1002B0000C4201D1106100E010601C680C42E9D1D1
:1002C0001061E8E790120A4080130A400000000025
:1002D000E0020000000000206801000008010000AA
:04000005000000C136
:00000001FF
