:020000040000FA
:10000000C00100205D0100006101000063010000EB
:1000100000000000000000000000000000000000E0
:10002000000000000000000000000000650100006A
:10003000000000000000000067010000810D0000CA
:100040006B0100006B0100006B010000000000006C
:10005000690B00000000000000000000000000002C
:10006000000000006B010000000000000000000024
:10007000000000006B01000000000000C10D000046
:100080006B010000000000006B0100000000000098
:100090006B010000000000000000000000000000F4
:1000A0006B0100006B010000000000000000000078
:1000B0000000000000000000000000006B010000D4
:1000C00000F002F800F03AF80CA030C80838241804
:1000D0002D18671EA246AB4654465D46AC4201D180
:1000E00000F02CF87E460F3EB6460FCC0126334278
:1000F00000D0FB1A3343A246AB461847D410000089
:10010000E410000000000000002300240025002669
:10011000103A01D378C1FBD8520700D330C100D5C3
:100120000B60704710B5642902D100F071F810BD62
:10013000002010BD1FB51FBD10B510BD00F0E8FCBC
:100140001146FFF7F7FF00F07DFE00F000FD03B45D
:10015000FFF7F2FF03BC00F04FFE00000648004727
:10016000FEE7FEE7FEE7FEE7FEE7FEE70348044999
:10017000024A044B70470000C1000000C00000208C
:10018000C0010020C00000200FB4054910B503AA2B
:10019000029800F079FC10BC08BC04B018470000BD
:1001A00060000020F8B50E4604460020206220467C
:1001B000E1688847002829D0252802D06268A16814
:1001C00020E0E16820460027884705001ED0284629
:1001D0004138192802D80127FF022035324620462F
:1001E00027602946FFF79EFF002808D0012804D089
:1001F000F61DF608F6000836D9E7361DD7E762681F
:100200002846A1689047206A401CCFE7206AF8BDC5
:10021000F7B5002575291068009914A611D0C046BD
:10022000C046002802DA404211A608E00099096899
:100230008A0701D50FA602E0490704D50EA60125BD
:1002400001E0C046C046009F0024243704E000F0CF
:100250002FFC30313955641C0028F8D12B4632462A
:100260002146009800F0B8FBFEBD00000000000031
:100270002D0000002B000000200000007047704798
:1002800070470000F0B5F94D0C091E092C402E40B6
:100290002F468BB0A7437DD0B543FCD0002E7AD03B
:1002A000002CFCD00D465D40ED0F2543AC1BFF2517
:1002B000AD0464190894C502440DC9022143500DD0
:1002C000DC0204430120C00701430443D202019130
:1002D000200C110C00958C46010423468B430A9197
:1002E00061460904E24D8A430991010A7D44491996
:1002F0008039097805464D4301266D18F605751BB2
:100300006943C90C640B891C4C436418B5012C1B50
:10031000250C2E04B4434C434D43210C6918890924
:100320000591009DE90701D00121C90704912C46E0
:1003300001996708CD072F434C08059DE10B4D43FC
:100340002D0C29466646754302950D4645432E46BB
:10035000029D7D1BB44100950D465D4301942C0C1C
:100360002F040D465543AE462D0C3D430295039494
:100370007546049C2D04641B049406D2029C039DC4
:10038000641C002675410395029401AC70CC009F5B
:100390007D1B01E03EE162E1B44109040095079153
:1003A00001940599A4086143090C0C464443650B6C
:1003B000E7040C4666467443A646640B3C4303952B
:1003C00002947446049DE4042C1B049406D2029CFF
:1003D000039D641C002675410395029401AC70CC0A
:1003E000009F7D1BB44101940C465C430095650F52
:1003F000E7000C465443A646640F3C430395029421
:100400007446049DE4002C1B049406D2029C039DB8
:10041000641C002675410395029401AC70CC009FCA
:100420007D1BB441AE09AF06049DC900AD092F4341
:10043000049DA406AD060495079D344369180791F1
:10044000059DE10B4D432D0C2946664675430295EB
:100450000D4645432E46029D7D1BB44100950D4639
:100460005D4301942C0C2F040D465543AE462D0CD4
:100470003D43029503947546049C2D04641B04942B
:1004800006D2029C039D641C0026754103950294CC
:1004900001AC70CC009F7D1BB44101948C05069487
:1004A000079C890A611800950791019C0599A40889
:1004B0006143090C0D464543680BEF040D46644645
:1004C00065436C0B3C43049FED047D1BAC4602D29C
:1004D0000025641C6841009E019D371B854108462C
:1004E000584301950C46460FC5005443600F2843FE
:1004F0006546E4002C1B02D20025401C6E41019D84
:100500003F1AB5412846BD09800628438446A00904
:10051000BF064E020699A40676180743079D0020E1
:1005200068410A99079019430020099B0090604692
:10053000FF1913434041E20F64003A43A4460446C6
:10054000D71A8C41A04203D90120009020463A4698
:10055000C70F941840416246D20F2243644664009C
:100560000494009CBE466400D71AA4460446029731
:100570008C417746002F01D1A04204D96046401C2F
:100580008446029A2046C40FA64694184041049A15
:100590000546D20F224364466400D31A8D4171464A
:1005A000002901D1A84202D928461A46641C1043EA
:1005B0000122002800D0164361020020079B891900
:1005C00004465C410223002C02DB491813466441B7
:1005D000089DCE0A2D145D194B056705E10A2C050F
:1005E0000D1908993E43C9076940002B08D0934074
:1005F00006D30022761C5141002B01D176087600EB
:100600001C4A002D43DB154241D0AA433FD030465F
:100610000BB0F0BD06180D464D41174C7642AC416B
:100620001AD395181C465C41134A6D42A24113D35C
:10063000012252054C00D4420AD15C00D4420BD0B6
:100640004B4002D592021143E2E749004908DFE737
:100650005940C90FC90718E000200849D8E70548E4
:1006600001420DD10342F7D0F2E700000000FF077E
:10067000460E00000000F07F0000E0FF0000F87F61
:10068000114859400143C01241400020C0E70123F6
:10069000089A9B069A4205DC032252078918C90F63
:1006A000C907B5E7052252078918074A1143D21234
:1006B0005140ADE770B515461C4602460B4628462C
:1006C0002146FFF7DFFD70BDFFFFFF7F30B503461A
:1006D000CA02400D1043164D164C0A1502D0204395
:1006E000002A06DBAA1A002A12DDD040FF2A0BDC02
:1006F00030BD5205520D01D140004008AA1A07D45E
:10070000D0404042FF2A01DD002030BD0028FCDD42
:100710004A00002B01D0012000E000201018012227
:100720005205D042F0D8C817C043604030BD000029
:100730001E040000000000801F22030C02D10F22C3
:10074000000402D0030E03D004E0002001467047ED
:100750000002083A030F01D10001121F830F01D1DB
:100760008000921E002801DB4000521E1205511825
:100770004205C012411810467047C10FC90700D08A
:100780004042012292071143D6E701218907D3E7AE
:10079000F0B58B4C0F09254689B0BD437BD01D09B0
:1007A0002646AE43FAD00E465E402740F60F3E4343
:1007B000254071D024012142FBD0FF24AD19A404AF
:1007C0002D1B039501252D05DB02DB0AC9022B43F6
:1007D000C90A29431E010901040F130F0501214312
:1007E0001701880B820391432D098C46A90B1E43E8
:1007F0008A039543B30B9A0396433F09BA0B9403BC
:10080000A74302962E467E430497B6464E19D71943
:100810000C460196544305977E43371B7646BF1B13
:100820003601B646BE0B361900967646BC0437191B
:10083000009C01D3641C00946400002F01D00126A9
:100840003443029E049F754366467E4304967600B9
:1008500034196E0034190094029C019E1C196643E1
:10086000751BAE46069465464519059C05956C4377
:10087000594375460891691A0191049E01465143F6
:10088000A41B0491611A009C0791E10605D061093F
:100890000122114302E072E06EE06109089D002729
:1008A0002C0A2D066918049D7C412A0A2D06691818
:1008B000019D6241AC0DAD026D185441079A910D36
:1008C000920255196141029A644658435443069B6B
:1008D000059A5A43121A131B9A0E9B015B187A4110
:1008E000010B0005C3185141220A200644195A4140
:1008F0009A4200D2491C01204002814203D31523B1
:100900000226F64302E014230326F6432020C51AEC
:10091000A9401746AF40DA400A4320460399D84021
:100920000914731819055118039A3843D207514016
:10093000AC4009D00122944006D30022401C514112
:10094000002C01D1400840001E4A934212D30122DC
:1009500003989206904207DB0520400709181A48C1
:100960000143C012414004E0032040070818C10FB2
:10097000C907002009B0F0BD0020F107FAE705180B
:100980000C464C4111486D42A04115D394181A46AB
:100990005A410E48644290410ED301204A0040055E
:1009A000824209D35A00824206D35940C90F084AED
:1009B000C90700201143DDE700200649DAE70000FF
:1009C0000000FF07FE070000FFFFFF7F0000E0FFC1
:1009D0000000F07F0000F87FFFB504460D4681B0AF
:1009E000243000902168880604D51022E0699143E4
:1009F000216000E00120A84201DD471B00E0002744
:100A00000498A1697A191018081AA0612078C00604
:100A100002D42046C046C046002608E0039862681B
:100A2000A168805D9047206A401C761C2062049873
:100A30008642F3DB2078C0060AD52046C046C04671
:100A400006E06268A16830209047206A401C20625E
:100A500038467F1E0028F4DC07E000986268A16831
:100A6000405D9047206A401C206228466D1E002889
:100A7000F3DC2046C046C0462078000602D502209E
:100A800005B0F0BD0120FBE7084B70B50D467B4477
:100A900000F027F80446284600F036F8002802D077
:100AA0000020C04370BD204670BD00008F030000D1
:100AB00001468008081A02091018020A1018020CD0
:100AC0001018C008820012185200891A01E0401C58
:100AD0000A390A29FBD2704701694A1C0261087869
:100AE000704700B58FB0029100210591054901932F
:100AF00079440391114604906846FFF753FB0FB009
:100B000000BD0000E5FFFFFFC0688021084070477E
:100B1000754600F025F8AE46050069465346C00804
:100B2000C000854618B020B5FFF720FB60BCB64674
:100B300000260027C0C5C0C5C0C5C0C5C0C5C0C54A
:100B4000C0C5C0C5403D490849008D46704710B535
:100B50000446C046C0462046FFF7F9FA10BD000023
:100B6000004870470000002004480068C0B209280F
:100B700002D1E248012101707047C0462050004078
:100B800010B51048104900F02DF810484168104A7F
:100B90000A4001214B04D218426082680D4B134079
:100BA00083600D4A002313600C4A42610A020C4B19
:100BB0001C6A14431C621C6814431C6002680A43CC
:100BC000026010BD00400040B8110000005100401C
:100BD000FEFFECFFF8FFE0E080510040409C000089
:100BE00028500040B0B50A78032313400B4A8458BC
:100BF0000B4D2540EB18A92424061B19835007220E
:100C000012064B6813401124240205599543EA1833
:100C10000251001949780161B0BDC04608080000C2
:100C2000FCFFFF00811E091F00BFFCD270470000BF
:100C300010B517488221416016490160164C1749CA
:100C4000204600F059F81649204600F031F80321FB
:100C5000CA0314480368934303600269124B1340AC
:100C60001A33036142690A433C218A434261416865
:100C700001221140436893435918416091020B4B84
:100C80001C680C431C6001681143016010BDC04624
:100C90005C8042408200040000801040C0110000CF
:100CA000C2110000009110400000FFFF289010408A
:100CB000B0B51122120283580124A34383508B78CC
:100CC0000C881C438B882343094C1C408358094DD6
:100CD0001D402B1983508B79CC791C43097A214311
:100CE0007E231940801842689A4351184160B0BD74
:100CF00018670000E798FDFF10B501221203831862
:100D00000C789C604978815010BD00000448812116
:100D10000160012080030349086008637047C046F2
:100D20003C804240A0120A4080B50E480E49416006
:100D30000E4A51600E4B59600E49016011601960F6
:100D40001020FFF76FFF0C48002101600B4801687D
:100D50000322914301600121090342680A43426072
:100D600080BDC04600080A40030000B10088104062
:100D7000004800400100002608030B4000010B4022
:100D800026480168002902D00168491E01607047A9
:100D9000084809494160FF210906084A13688B4346
:100DA0000321890759181160002181600721016022
:100DB0007047C04610E000E0FF7C000020ED00E03E
:100DC0000B480068C0B20B2811D11D48C169094AFF
:100DD000117011780268D20708D00268D20705D0D6
:100DE0000268D20702D00268D207F3D1816170474E
:100DF00020901040B90000207047000007490860AB
:100E00000868002808D00868002805D0086800286D
:100E100002D008680028F3D17047C046B400002013
:100E200007490A68D20708D00A68D20705D00A68BD
:100E3000D20702D00A68D207F3D1C2B28A617047E2
:100E40000891104082B0FFF76FFFFFF75FFFFFF7D9
:100E50009FFFFFF7EDFEFFF793FE01200190C00317
:100E6000234908602349086010200860224D234C64
:100E700028E0234800680026267087B221A0394662
:100E8000FFF782F93846FFF780FC3246214BFFF727
:100E9000F9F9214A214BFFF77BFC3246204BFFF743
:100EA00077FCFFF713FC06466427394600F048F844
:100EB00001464743F21B1BA0FFF766F97D20C000E7
:100EC000FFF79CFF01980002296801432960207800
:100ED0000028CED120BF20780028CAD120BF20789A
:100EE0000028C6D120BF20780028C2D120BFEEE75D
:100EF00080E200E000E100E004510040B800002082
:100F000080A255406164632076616C75653A202546
:100F1000640D0A0000FEAF406666666666660A40BB
:100F200000005940766F6C746167652076616C755E
:100F3000653A2025642E256420560D0A0000000025
:100F400043088B421AD3002203098B4279D3030A48
:100F50008B425ED3030B8B4242D3030C8B4227D3CD
:100F60000902FF2212BA030C8B4202D312120902A9
:100F700003D0030B8B4233D31AE0D3E0411A8041F4
:100F8000401C704703460B4371D443088B42F5D392
:100F9000002203098B4254D3030A8B4239D3030B3B
:100FA0008B421DD3030C8B4202D394466EE0090A98
:100FB000C30B8B4201D3CB03C01A5241830B8B422C
:100FC00001D38B03C01A5241430B8B4201D34B0315
:100FD000C01A5241030B8B4201D30B03C01A52417A
:100FE000C30A8B4201D3CB02C01A5241830A8B42FF
:100FF00001D38B02C01A5241430A8B4201D34B02E8
:10100000C01A5241030A8B4201D30B02C01A52414B
:10101000CDD2C3098B4201D3CB01C01A52418309FF
:101020008B4201D38B01C01A524143098B4201D339
:101030004B01C01A524103098B4201D30B01C01A64
:101040005241C3088B4201D3CB00C01A52418308DE
:101050008B4201D38B00C01A524143088B4201D30B
:101060004B00C01A5241411A524110007047CA0F3A
:1010700000D04942031000D34042534000229C4616
:1010800003098B422DD3030A8B4212D38901FC2220
:1010900012BA030A8B420CD3890192118B4208D3F6
:1010A000890192118B4204D3890137D0921100E05B
:1010B0008909C3098B4201D3CB01C01A524183096C
:1010C0008B4201D38B01C01A524143098B4201D399
:1010D0004B01C01A524103098B4201D30B01C01AC4
:1010E0005241C3088B4201D3CB00C01A524183083E
:1010F0008B4201D38B00C01A5241D9D243088B4294
:1011000001D34B00C01A5241411A00D2014652414C
:10111000104663465B1000D34042704763465B1045
:1011200000D3404201B50021004201D0C943084626
:10113000C046C04602BD80807F7E7D7C7B7A797808
:10114000777676757473727171706F6E6E6D6C6C8C
:101150006B6A6A696868676666656464636362612E
:101160006160605F5F5E5E5D5D5C5C5B5B5A5A59AF
:10117000595858575756565555555454535352521B
:101180005251515050504F4F4F4E4E4D4D4D4C4C73
:101190004C4B4B4B4A4A4A494949484848474747BC
:1011A00047464646454545444444444343434342F9
:1011B000424242414141000001050000000000039D
:1011C00004000000180000000030000000000000D3
:1011D000E011000000000020C00100000801000034
:04000005000000C136
:00000001FF
