:020000040000FA
:10000000C00100205D0100006101000063010000EB
:1000100000000000000000000000000000000000E0
:10002000000000000000000000000000650100006A
:10003000000000000000000067010000BD1100008A
:100040006B0100006B0100006B010000000000006C
:100050006B01000000000000000000000000000034
:10006000000000006B010000000000000000000024
:10007000000000006B01000000000000FD11000006
:100080006B010000000000006B0100000000000098
:100090006B010000000000000000000000000000F4
:1000A0006B0100006B010000000000000000000078
:1000B0000000000000000000000000006B010000D4
:1000C00000F002F800F03AF80CA030C80838241804
:1000D0002D18671EA246AB4654465D46AC4201D180
:1000E00000F02CF87E460F3EB6460FCC0126334278
:1000F00000D0FB1A3343A246AB4618473415000024
:100100004415000000000000002300240025002604
:10011000103A01D378C1FBD8520700D330C100D5C3
:100120000B60704710B5642902D100F063F810BD70
:10013000002010BD1FB51FBD10B510BD00F03CFD67
:100140001146FFF7F7FF01F09BF800F054FD03B4F0
:10015000FFF7F2FF03BC01F06DF80000064800470E
:10016000FEE7FEE7FEE7FEE7FEE7FEE70348044999
:10017000024A044B70470000C1000000C00000208C
:10018000C0010020C00000200FB4054910B503AA2B
:10019000029800F0CDFC10BC08BC04B01847000069
:1001A0006000002070B5044685690068C10601D56D
:1001B000302600E02026C00707D070BD62683046B8
:1001C000A1689047206A401C20626D1EF6D570BD64
:1001D00070B5044685690078C00707D170BD6268B4
:1001E000A16820209047206A401C20626D1EF6D531
:1001F00070BD0000F7B5002575291068009914A698
:1002000011D0C046C046002802DA404211A608E0DC
:10021000009909688A0701D50FA602E0490704D5AD
:100220000EA6012501E0C046C046009F00242437E9
:1002300004E000F091FC30313955641C0028F8D1FD
:100240002B4632462146009800F01AFCFEBD000005
:10025000000000002D0000002B0000002000000026
:10026000F3B50446002081B020622046E16888474B
:1002700000287DD0252802D06268A16883E0454F20
:1002800000257F442046E16888472028064608DB91
:10029000312E06D2B81920380078002801D0054345
:1002A000F0E7A80701D5042085430020E061074658
:1002B000A0612A2E0AD0304601F049F9002827D043
:1002C000B8000019303E0090866119E00298BA002B
:1002D000121902C8916102902046E1688847012FF7
:1002E000064617D1E06900281FDA202085431CE06C
:1002F00000980A2180694843009980193038886144
:100300002046E1688847064601F021F90028EFD130
:10031000012F0AD02E2E08D12046E16888470646D4
:10032000202005437F1C022FC3DBA069002803DACD
:100330004042A06101200543E80701D01020854319
:10034000002E24D030464138192803D80120C0029D
:1003500005432036204625603146029A1546FFF7B0
:10036000E1FE00280CD0012807D0ED1DE80800E0D0
:100370000DE0C0000830029077E72D1D029574E76C
:1003800062683046A1689047206A401C6CE7206A8A
:10039000FEBD00008613000010B5024900F05EFFAC
:1003A00010BD00006000002010B5044603E000F01E
:1003B00055FF401C08D020780549641C0028F6D160
:1003C0000A2000F04BFF10BD0020C04310BD00000C
:1003D0006000002070477047704700000246C80F59
:1003E000C00781434B0030B54B405B009B0D20D0D4
:1003F0001923DB06C91801231B05994220DB0324BE
:10040000A40704251346AB400BD3002B04D1EB0605
:1004100013409B00E34204D4012464070023121913
:100420005941FF231B0599420BD2C9000143500FCC
:1004300009E0CB0204D501430803024305D0054877
:1004400030BDFF21C905084330BD08460721090515
:10045000884330BD0000C07FF0B50C46871A9C4130
:100460000D46861A9D4103D2C01BA141D21963419A
:100470000D0D1F0DC94EEC1BAE435CD07F057F0DEB
:100480000026002F51D02D05AC46A943DD020123E3
:10049000ED0A1B051D4320231B1B24D41746E740F0
:1004A000381871412F46E740CC199D402818314635
:1004B00061410C0D27D161449A4013D50023401CA3
:1004C000594152000ED14008400001224B00520514
:1004D000D34207D305204007C14201D5B04900E00F
:1004E000B0493046F0BD6B00002A00D001229A18B6
:1004F0001F23203C1B1B01D5002302E0E5402818E8
:1005000071410C0DD7D0012424050919C407CD076A
:1005100040084908E40F28436144002CD5D000244A
:10052000401C61419A40D0D1CDE76A05520DD9D126
:10053000C90FC907D5E79C4D4E00002801D0012402
:1005400000E0002434195F00002A01D0012600E0F9
:100550000026BE19954FAC420CD8AE420AD8B44220
:1005600006D001256D05EC42BCD010461946F0BD01
:100570009942FCD000203946F0BDF0B51FB40C46BE
:100580000F46811A9F412546861A9D4106D20125B4
:10059000ED076F40401ABC4152187B41210D1E0DE2
:1005A0008D1BAC467D4D8D437ED075056D0D7CD089
:1005B0000D05AE46AC431B031B0B794D52429D41CA
:1005C000202366469B1B14D31746F7403818002695
:1005D0000090744160462F460741E41900989D4001
:1005E0002818664116D4714671189A4025D5012302
:1005F00020E093182A466A415200002B00D0521C7A
:100600001E23203E9B1B002B61DD3541EE17281871
:100610006641E8D5001876415B1C9A4000D3401C27
:100620004B05F3181524E34010D3002B52D071462C
:100630007118D30FC01802D3491C05B0F0BD0123B7
:10064000DB079A42F9D140084000F6E70122520543
:10065000B21801D1002853D00123CC0ADB02994300
:10066000891E002A08D1020C03D0020C00041039A4
:1006700002E00246002020390023550B05D112026A
:100680000823550B01D152010D23550C01D1120144
:100690001B1DD50C01D192009B1C150D01D15200E0
:1006A0005B1C2025EE1A01E02CE022E00546F54017
:1006B00015439840CA1AE10769181305C918002A9A
:1006C000BBDA032040070818C10FC9070FE07146C5
:1006D0006118B2E7F10740080843711071444A00FD
:1006E0000CD001235B059A42A7D2C90FC90700208D
:1006F000A3E74905490D26D1002001E00028F4D1E7
:1007000000219AE7284D6600002801D0012100E071
:10071000002171185F00002A01D0012600E00026A8
:10072000BE19224FA94210D8AE420ED8B14208D00D
:1007300001256D05E94206D01946A8024140104640
:100740007BE79C4201D0214677E70020394674E7D9
:1007500010B50C465C4005D50124E4076340FFF763
:100760000CFF10BDFFF778FE10BD30B40C465C40A6
:1007700004D50124E407634030BC6DE630BCFCE6E0
:1007800070B50124E40761400D465D4002D4FFF7D7
:1007900063FE70BD6340FFF7F0FE70BDFF07000011
:1007A0000000F0FF0000F07F0000E0FF0000F87F95
:1007B0001F22030C02D10F22000402D0030E03D02B
:1007C00004E00020014670470002083A030F01D1FF
:1007D0000001121F830F01D18000921E002801DB4F
:1007E0004000521E120551184205C0124118104611
:1007F0007047C10FC90700D0404201229207114340
:10080000D6E701218907D3E7F0B58B4C0F092546C0
:1008100089B0BD437BD01D092646AE43FAD00E46B3
:100820005E402740F60F3E43254071D0240121420F
:10083000FBD0FF24AD19A4042D1B039501252D0524
:10084000DB02DB0AC9022B43C90A29431E01090145
:10085000040F130F050121431701880B82039143F5
:100860002D098C46A90B1E438A039543B30B9A03AB
:1008700096433F09BA0B9403A74302962E467E4344
:100880000497B6464E19D7190C460196544305975E
:100890007E43371B7646BF1B3601B646BE0B361964
:1008A00000967646BC043719009C01D3641C009462
:1008B0006400002F01D001263443029E049F75433B
:1008C00066467E430496760034196E00341900940F
:1008D000029C019E1C196643751BAE460694654634
:1008E0004519059C05956C43594375460891691A4D
:1008F0000191049E01465143A41B0491611A009C7E
:100900000791E10605D061090122114302E072E07E
:100910006EE06109089D00272C0A2D066918049DC8
:100920007C412A0A2D066918019D6241AC0DAD0279
:100930006D185441079A910D920255196141029A1E
:10094000644658435443069B059A5A43121A131B94
:100950009A0E9B015B187A41010B0005C3185141A7
:10096000220A200644195A419A4200D2491C012009
:100970004002814203D315230226F64302E01423EA
:100980000326F6432020C51AA9401746AF40DA4097
:100990000A4320460399D8400914731819055118C1
:1009A000039A3843D2075140AC4009D00122944009
:1009B00006D30022401C5141002C01D140084000C8
:1009C0001E4A934212D3012203989206904207DBFB
:1009D0000520400709181A480143C012414004E0AD
:1009E000032040070818C10FC907002009B0F0BD57
:1009F0000020F107FAE705180C464C4111486D42FA
:100A0000A04115D394181A465A410E4864429041A9
:100A10000ED301204A004005824209D35A00824287
:100A200006D35940C90F084AC90700201143DDE722
:100A300000200649DAE700000000FF07FE0700007B
:100A4000FFFFFF7F0000E0FF0000F07F0000F87F65
:100A50000102C21504D00123DB071943002A0ADB77
:100A60009E239A1A02D40846D0407047FF224100C4
:100A70001206914201D900207047C017C043704749
:100A8000FFB504460D4681B02430009021688806E9
:100A900004D51022E0699143216000E00120A842C2
:100AA00001DD471B00E000270498A1697A1910189E
:100AB000081AA0612078C00602D42046FFF772FB16
:100AC000002608E003986268A168805D9047206A6C
:100AD000401C761C206204988642F3DB2078C00616
:100AE0000AD52046FFF75EFB06E06268A168302069
:100AF0009047206A401C206238467F1E0028F4DCA4
:100B000007E000986268A168405D9047206A401C39
:100B1000206228466D1E0028F3DC2046FFF758FBB4
:100B20002078000602D5022005B0F0BD0120FBE7C9
:100B3000084B70B50D467B4400F027F80446284664
:100B400000F036F8002802D00020C04370BD2046D7
:100B500070BD00002307000001468008081A020942
:100B60001018020A1018020C1018C008820012187F
:100B70005200891A01E0401C0A390A29FBD2704749
:100B800001694A1C02610878704700B58FB0029174
:100B90000021059105490193794403911146049080
:100BA0006846FFF75DFB0FB000BD0000E5FFFFFFEB
:100BB000C068802108407047754600F025F8AE46B1
:100BC000050069465346C008C000854618B020B5E8
:100BD000FFF7CCFA60BCB64600260027C0C5C0C5EA
:100BE000C0C5C0C5C0C5C0C5C0C5C0C5403D490819
:100BF00049008D46704710B50446C046C0462046A1
:100C0000FFF7A5FA10BD0000004870470000002063
:100C1000811E091F00BFFCD270470000B0B5112231
:100C2000120283580124A34383508B780C881C4301
:100C30008B882343094C1C408358094D1D402B19B8
:100C400083508B79CC791C43097A21437E23194048
:100C5000801842689A4351184160B0BD186700007F
:100C6000E798FDFF10B50122120383180C789C60F1
:100C70004978815010BD0000044881210160416025
:100C800026480321016001647047C0460480424049
:100C900010B5214981220A60204902230B600B64B0
:100CA00001220A6144B2002C01D40B6100E00B6008
:100CB0000A600A61440601D40B6100E00B600A601F
:100CC0000A61840601D40B6100E00B600A600A61CE
:100CD000C40601D40B6100E00B600A600A610407DE
:100CE00001D40B6100E00B600A600A61440701D483
:100CF0000B6100E00B600A600A61840701D40B619C
:100D000000E00B600A600A61C00701D10B6100E0DE
:100D10000B600A600A6110BD0880424090120A40D0
:100D200004488121016001208003034908600863B1
:100D30007047C0463C804240A0120A40F0B591B0D6
:100D40000146DA4A81231360D94E022535603564A5
:100D50000127376135603760356137611360356071
:100D600035643761356037603761356137603761C9
:100D700035613760376135613760376135613760BC
:100D800037613561376037613561376037613561AB
:100D900037603761C748106035603760C64C2068DF
:100DA000800710910F931BD52068800718D5206805
:100DB000800715D52068800712D5206880070FD5D9
:100DC000206880070CD52068800709D52068800737
:100DD00006D52068800703D52068800700D547E145
:100DE00037611360356035640846FFF751FFB1493C
:100DF000AE4A116035603760206880071BD52068D7
:100E0000800718D52068800715D52068800712D57F
:100E1000206880070FD5206880070CD520688007E0
:100E200009D52068800706D52068800703D520688B
:100E3000800700D529E137610F9B13603560356469
:100E4000136035603564376135603760356137610F
:100E500013603560356437613560376037613561FF
:100E600037603761356137603761356137603761C9
:100E700035613760376135613760376135613760BB
:100E800037613560376037611160356037602068E1
:100E9000800723D52068800720D5206880071DD5CE
:100EA000206880071AD52068800717D5206880073A
:100EB00014D52068800711D5206880070ED52068DA
:100EC00080070BD52068800708D52068136035603F
:100ED00035643761356137603560B1E7376113607C
:100EE0003560356411603761376020680490376180
:100EF0003760206808903761376020680990376153
:100F0000376020680A903761376020680B9037613E
:100F1000376020680C903761376020680E90376129
:100F2000376020680D901360356035643761356136
:100F3000356137603761356011603761376020682F
:100F40000090376137602068376137602168019110
:100F500037613760216802913761376021680391FA
:100F600037613760216805913761376021680791E3
:100F700037613760216806911360356035643761E9
:100F800035613560376037613560136035603564D1
:100F9000376135613760356004994F00042637406A
:100FA000089A2A40D719BF00099A54003440E4191E
:100FB0000A9A2A401419A4000B9A570037403C198A
:100FC0000C9A2A40141964000E9A2A4014190D9A9A
:100FD0009707FF0F3F1900994C0034402840001933
:100FE000800001994C0034402018029929400818CB
:100FF00080000399490031400818059929400818D4
:10100000400007992940081806998907C90F081850
:101010001099F52912D0F32927D1C0B2F9B20902EB
:101020000818FFF7E6FB00222A4BFFF7EDFB2C4ADE
:101030002C4BFFF7E9FB2C4A2C4B10E0C0B2F9B265
:1010400009020818FFF7D5FB0024224B2246FFF7C0
:10105000DBFB214B2246FFF7D7FB204B2246FFF755
:1010600077FBFFF7BBF911B0F0BD002011B0F0BD68
:1010700020681360356035643761356137603560ED
:101080000EA0FFF791F91099AEE620680F98106056
:101090003560356437613561376035600AA0FFF728
:1010A00083F904490F9B014ACAE6C04608804240C2
:1010B00090120A408100040080130A406572726F2A
:1010C00072202D310D0000006572726F72202D327A
:1010D0000D0000000000F03E00405F40000018C01E
:1010E000D7A3703D0AF76540CDCCCCCCCC6C47C0C3
:1010F00010B517488221416016490160164C174906
:101100002046FFF7AFFD16492046FFF787FD032174
:10111000CA0314480368934303600269124B1340E7
:101120001A33036142690A433C218A4342614168A0
:1011300001221140436893435918416091020B4BBF
:101140001C680C431C6001681143016010BDC0465F
:101150005C80424082000400008010401D160000A8
:1011600020160000009110400000FFFF2890104062
:1011700080B50C480C4941600C4A51600C49016033
:1011800011601020FFF744FD0A48002101600A4861
:1011900001680322914301600121090342680A4367
:1011A000426080BD00080A40030000B10088104082
:1011B0000100002608030B4000010B40264801688F
:1011C000002902D00168491E01607047084809499A
:1011D0004160FF210906084A13688B4303218907F0
:1011E0005918116000218160072101607047C046D5
:1011F00010E000E0FF7C000020ED00E00B480068FC
:10120000C0B20B2811D11D48C169094A117011786B
:101210000268D20708D00268D20705D00268D20758
:1012200002D00268D207F3D181617047209010404C
:10123000B8000020704700000749086008680028CF
:1012400008D00868002805D00868002802D008687F
:101250000028F3D17047C046B400002007490A684F
:10126000D20708D00A68D20705D00A68D20702D090
:101270000A68D207F3D1C2B28A6170470891104060
:10128000FFF776FFFFF74CFDFFF7A0FFFFF730FFFA
:10129000FFF7F2FC0120C0031C4908601C490860EC
:1012A0001CA0FFF781F8F320FFF748FD1D4900F06F
:1012B00055F9FFF7CDFB05466427394600F04CF899
:1012C0000646384670432D1AF520FFF737FD0446D1
:1012D00015A031462A46FEF757FF2046114900F077
:1012E0003DF9FFF7B5FB0446394600F035F80146F5
:1012F0004743E21B12A0FEF747FF0A20FFF74CF816
:101300007D20C000FFF798FFCDE7C04680E200E0F7
:1013100000E100E053485432302053746172740D80
:10132000000000000000C842E6B8A9E5BAA6203DCA
:101330002025642E2530326420C2B0630D0A0000DF
:10134000E6B9BFE5BAA6203D2025642E25303264DB
:1013500020252552480D0A0043088B421AD300224B
:1013600003098B4279D3030A8B425ED3030B8B4272
:1013700042D3030C8B4227D30902FF2212BA030C7B
:101380008B4202D31212090203D0030B8B4233D3D8
:101390001AE0D3E0411A8041401C704703460B43DA
:1013A00071D443088B42F5D3002203098B4254D3F6
:1013B000030A8B4239D3030B8B421DD3030C8B42A0
:1013C00002D394466EE0090AC30B8B4201D3CB03D0
:1013D000C01A5241830B8B4201D38B03C01A524176
:1013E000430B8B4201D34B03C01A5241030B8B4278
:1013F00001D30B03C01A5241C30A8B4201D3CB0263
:10140000C01A5241830A8B4201D38B02C01A524147
:10141000430A8B4201D34B02C01A5241030A8B424A
:1014200001D30B02C01A5241CDD2C3098B4201D362
:10143000CB01C01A524183098B4201D38B01C01AE0
:10144000524143098B4201D34B01C01A5241030957
:101450008B4201D30B01C01A5241C3088B4201D306
:10146000CB00C01A524183088B4201D38B00C01AB3
:10147000524143088B4201D34B00C01A5241411ADA
:10148000524110007047CA0F00D04942031000D3E8
:101490004042534000229C4603098B422DD3030A4D
:1014A0008B4212D38901FC2212BA030A8B420CD35D
:1014B000890192118B4208D3890192118B4204D386
:1014C000890137D0921100E08909C3098B4201D309
:1014D000CB01C01A524183098B4201D38B01C01A40
:1014E000524143098B4201D34B01C01A52410309B7
:1014F0008B4201D30B01C01A5241C3088B4201D366
:10150000CB00C01A524183088B4201D38B00C01A12
:101510005241D9D243088B4201D34B00C01A5241E9
:10152000411A00D201465241104663465B1000D377
:101530004042704763465B1000D3404201B5002132
:10154000004201D0C9430846C046C04602BD3038FB
:101550000A2801D2012070470020704770B5420070
:1015600064414B005C41120E39D01B0E38D0FF2A6B
:101570003CD0FF2B3AD0D2187F3A40024902400AB1
:10158000490A4518ED0106004E43000A090A48437E
:101590000104731A4019190C4318990F04D05B0801
:1015A000012149075B1A521CD80904D3401CF503DA
:1015B00001D19D0607D0FF2A08D2D50506D0E40741
:1015C0002043401970BD0125A843F4E7002A01DC3F
:1015D000E00770BD2402FF202043C00570BD1B0E34
:1015E000FF2A03D0FF2B01D0E00770BDFF2636068F
:1015F0004500B54206D84D00B54203D8D218FF2A9F
:1016000000D0E7E7004870BD0000C07F040000087C
:1016100000000000000000020001000010040000B3
:101620000000180000000030000000000000000072
:101630004016000000000020C0010000080100006A
:04000005000000C136
:00000001FF
